{
  "contractName": "ProductDeployERC20",
  "abi": [
    {
      "anonymous": false,
      "inputs": [
        {
          "indexed": true,
          "internalType": "address",
          "name": "deployer",
          "type": "address"
        },
        {
          "indexed": true,
          "internalType": "address",
          "name": "tokenAddress",
          "type": "address"
        },
        {
          "indexed": false,
          "internalType": "string",
          "name": "name",
          "type": "string"
        },
        {
          "indexed": false,
          "internalType": "string",
          "name": "symbol",
          "type": "string"
        },
        {
          "indexed": false,
          "internalType": "uint256",
          "name": "amount",
          "type": "uint256"
        },
        {
          "indexed": true,
          "internalType": "uint256",
          "name": "timestamp",
          "type": "uint256"
        }
      ],
      "name": "DeployProductERC20",
      "type": "event"
    },
    {
      "anonymous": false,
      "inputs": [
        {
          "indexed": true,
          "internalType": "address",
          "name": "deployer",
          "type": "address"
        },
        {
          "indexed": true,
          "internalType": "address",
          "name": "tokenAddress",
          "type": "address"
        },
        {
          "indexed": false,
          "internalType": "uint256",
          "name": "totalPrice",
          "type": "uint256"
        },
        {
          "indexed": false,
          "internalType": "uint256",
          "name": "amount",
          "type": "uint256"
        },
        {
          "indexed": true,
          "internalType": "uint256",
          "name": "timestamp",
          "type": "uint256"
        }
      ],
      "name": "OrderReceipt",
      "type": "event"
    },
    {
      "anonymous": false,
      "inputs": [
        {
          "indexed": true,
          "internalType": "address",
          "name": "previousOwner",
          "type": "address"
        },
        {
          "indexed": true,
          "internalType": "address",
          "name": "newOwner",
          "type": "address"
        }
      ],
      "name": "OwnershipTransferred",
      "type": "event"
    },
    {
      "inputs": [],
      "name": "owner",
      "outputs": [
        {
          "internalType": "address",
          "name": "",
          "type": "address"
        }
      ],
      "stateMutability": "view",
      "type": "function",
      "constant": true
    },
    {
      "inputs": [
        {
          "internalType": "uint256",
          "name": "",
          "type": "uint256"
        }
      ],
      "name": "productERC20Addresses",
      "outputs": [
        {
          "internalType": "address",
          "name": "",
          "type": "address"
        }
      ],
      "stateMutability": "view",
      "type": "function",
      "constant": true
    },
    {
      "inputs": [
        {
          "internalType": "address",
          "name": "",
          "type": "address"
        }
      ],
      "name": "productERC20AmountAddresses",
      "outputs": [
        {
          "internalType": "uint256",
          "name": "",
          "type": "uint256"
        }
      ],
      "stateMutability": "view",
      "type": "function",
      "constant": true
    },
    {
      "inputs": [
        {
          "internalType": "address",
          "name": "",
          "type": "address"
        }
      ],
      "name": "productERC20OwnerAddresses",
      "outputs": [
        {
          "internalType": "address",
          "name": "",
          "type": "address"
        }
      ],
      "stateMutability": "view",
      "type": "function",
      "constant": true
    },
    {
      "inputs": [
        {
          "internalType": "address",
          "name": "",
          "type": "address"
        }
      ],
      "name": "productERC20ValueAddresses",
      "outputs": [
        {
          "internalType": "uint256",
          "name": "",
          "type": "uint256"
        }
      ],
      "stateMutability": "view",
      "type": "function",
      "constant": true
    },
    {
      "inputs": [],
      "name": "renounceOwnership",
      "outputs": [],
      "stateMutability": "nonpayable",
      "type": "function"
    },
    {
      "inputs": [
        {
          "internalType": "address",
          "name": "newOwner",
          "type": "address"
        }
      ],
      "name": "transferOwnership",
      "outputs": [],
      "stateMutability": "nonpayable",
      "type": "function"
    },
    {
      "inputs": [
        {
          "internalType": "string",
          "name": "name",
          "type": "string"
        },
        {
          "internalType": "string",
          "name": "symbol",
          "type": "string"
        },
        {
          "internalType": "uint256",
          "name": "amount",
          "type": "uint256"
        },
        {
          "internalType": "uint256",
          "name": "value",
          "type": "uint256"
        }
      ],
      "name": "deployERC20Token",
      "outputs": [
        {
          "internalType": "bool",
          "name": "",
          "type": "bool"
        }
      ],
      "stateMutability": "nonpayable",
      "type": "function"
    },
    {
      "inputs": [],
      "name": "getProductERC20AddressesLength",
      "outputs": [
        {
          "internalType": "uint256",
          "name": "",
          "type": "uint256"
        }
      ],
      "stateMutability": "view",
      "type": "function",
      "constant": true
    },
    {
      "inputs": [
        {
          "internalType": "address",
          "name": "productContract",
          "type": "address"
        }
      ],
      "name": "getProductDetail",
      "outputs": [
        {
          "internalType": "string",
          "name": "",
          "type": "string"
        },
        {
          "internalType": "string",
          "name": "",
          "type": "string"
        }
      ],
      "stateMutability": "view",
      "type": "function",
      "constant": true
    },
    {
      "inputs": [
        {
          "internalType": "address",
          "name": "to",
          "type": "address"
        },
        {
          "internalType": "address",
          "name": "productContract",
          "type": "address"
        },
        {
          "internalType": "uint256",
          "name": "amount_",
          "type": "uint256"
        }
      ],
      "name": "buyProduct",
      "outputs": [
        {
          "internalType": "bool",
          "name": "",
          "type": "bool"
        }
      ],
      "stateMutability": "payable",
      "type": "function",
      "payable": true
    },
    {
      "inputs": [
        {
          "internalType": "address",
          "name": "productContract",
          "type": "address"
        },
        {
          "internalType": "uint256",
          "name": "price_",
          "type": "uint256"
        }
      ],
      "name": "setPrice",
      "outputs": [],
      "stateMutability": "nonpayable",
      "type": "function"
    },
    {
      "inputs": [
        {
          "internalType": "address",
          "name": "productContract",
          "type": "address"
        },
        {
          "internalType": "uint256",
          "name": "amount_",
          "type": "uint256"
        }
      ],
      "name": "AddAmount",
      "outputs": [],
      "stateMutability": "nonpayable",
      "type": "function"
    },
    {
      "inputs": [
        {
          "internalType": "address",
          "name": "productContract",
          "type": "address"
        }
      ],
      "name": "getPrice",
      "outputs": [
        {
          "internalType": "uint256",
          "name": "",
          "type": "uint256"
        }
      ],
      "stateMutability": "view",
      "type": "function",
      "constant": true
    },
    {
      "inputs": [
        {
          "internalType": "address",
          "name": "productContract",
          "type": "address"
        }
      ],
      "name": "getAmount",
      "outputs": [
        {
          "internalType": "uint256",
          "name": "",
          "type": "uint256"
        }
      ],
      "stateMutability": "view",
      "type": "function",
      "constant": true
    },
    {
      "inputs": [
        {
          "internalType": "address",
          "name": "productContract",
          "type": "address"
        },
        {
          "internalType": "uint256",
          "name": "amount_",
          "type": "uint256"
        }
      ],
      "name": "getTotalPrice",
      "outputs": [
        {
          "internalType": "uint256",
          "name": "",
          "type": "uint256"
        }
      ],
      "stateMutability": "view",
      "type": "function",
      "constant": true
    },
    {
      "inputs": [
        {
          "internalType": "address",
          "name": "productContract",
          "type": "address"
        },
        {
          "internalType": "uint256",
          "name": "amount_",
          "type": "uint256"
        }
      ],
      "name": "checkStock",
      "outputs": [
        {
          "internalType": "bool",
          "name": "",
          "type": "bool"
        }
      ],
      "stateMutability": "view",
      "type": "function",
      "constant": true
    }
  ],
  "bytecode": "0x608060405234801561001057600080fd5b5061002d61002261003260201b60201c565b61003a60201b60201c565b6100fe565b600033905090565b60008060009054906101000a900473ffffffffffffffffffffffffffffffffffffffff169050816000806101000a81548173ffffffffffffffffffffffffffffffffffffffff021916908373ffffffffffffffffffffffffffffffffffffffff1602179055508173ffffffffffffffffffffffffffffffffffffffff168173ffffffffffffffffffffffffffffffffffffffff167f8be0079c531659141344cd1fd0a4f28419497f9722a3daafe3b4186f6b6457e060405160405180910390a35050565b6140e18061010d6000396000f3fe608060405260043610620001155760003560e01c80635194597211620000a35780638da5cb5b116200006d5780638da5cb5b14620003d2578063a24444aa1462000402578063ea3d60271462000447578063f2fde38b146200048b578063f5a7976714620004b95762000115565b80635194597214620003005780635a2eb16a14620003305780635ba9831a1462000374578063715018a614620003b85762000115565b806338a939d511620000e557806338a939d514620001fe5780633ad448ba146200024257806341976e0914620002865780635008b7dd14620002ca5762000115565b8062e4768b146200011a578063077fcda91462000148578063264a06bf146200018c578063277fac9014620001d0575b600080fd5b3480156200012757600080fd5b5062000146600480360381019062000140919062001099565b620004fd565b005b3480156200015557600080fd5b506200017460048036038101906200016e919062001099565b620005c8565b604051620001839190620010fd565b60405180910390f35b3480156200019957600080fd5b50620001b86004803603810190620001b291906200127c565b62000615565b604051620001c79190620010fd565b60405180910390f35b348015620001dd57600080fd5b50620001fc6004803603810190620001f6919062001099565b6200083b565b005b3480156200020b57600080fd5b506200022a600480360381019062000224919062001099565b6200091a565b6040516200023991906200133d565b60405180910390f35b3480156200024f57600080fd5b506200026e60048036038101906200026891906200135a565b62000951565b6040516200027d91906200133d565b60405180910390f35b3480156200029357600080fd5b50620002b26004803603810190620002ac91906200135a565b62000969565b604051620002c191906200133d565b60405180910390f35b620002e86004803603810190620002e291906200138c565b620009b2565b604051620002f79190620010fd565b60405180910390f35b3480156200030d57600080fd5b506200031862000b72565b6040516200032791906200133d565b60405180910390f35b3480156200033d57600080fd5b506200035c60048036038101906200035691906200135a565b62000b7f565b6040516200036b91906200133d565b60405180910390f35b3480156200038157600080fd5b50620003a060048036038101906200039a91906200135a565b62000b97565b604051620003af9190620013f9565b60405180910390f35b348015620003c557600080fd5b50620003d062000bca565b005b348015620003df57600080fd5b50620003ea62000c5b565b604051620003f99190620013f9565b60405180910390f35b3480156200040f57600080fd5b506200042e60048036038101906200042891906200135a565b62000c84565b6040516200043e929190620014a9565b60405180910390f35b3480156200045457600080fd5b506200047360048036038101906200046d9190620014e4565b62000d7e565b604051620004829190620013f9565b60405180910390f35b3480156200049857600080fd5b50620004b76004803603810190620004b191906200135a565b62000dbe565b005b348015620004c657600080fd5b50620004e56004803603810190620004df91906200135a565b62000ec2565b604051620004f491906200133d565b60405180910390f35b6200050762000f0b565b73ffffffffffffffffffffffffffffffffffffffff166200052762000c5b565b73ffffffffffffffffffffffffffffffffffffffff161462000580576040517f08c379a0000000000000000000000000000000000000000000000000000000008152600401620005779062001566565b60405180910390fd5b80600360008473ffffffffffffffffffffffffffffffffffffffff1673ffffffffffffffffffffffffffffffffffffffff168152602001908152602001600020819055505050565b6000600460008473ffffffffffffffffffffffffffffffffffffffff1673ffffffffffffffffffffffffffffffffffffffff16815260200190815260200160002054821115905092915050565b600080338686866040516200062a9062000fd7565b62000639949392919062001588565b604051809103906000f08015801562000656573d6000803e3d6000fd5b5090506001819080600181540180825580915050600190039060005260206000200160009091909190916101000a81548173ffffffffffffffffffffffffffffffffffffffff021916908373ffffffffffffffffffffffffffffffffffffffff16021790555033600260008373ffffffffffffffffffffffffffffffffffffffff1673ffffffffffffffffffffffffffffffffffffffff16815260200190815260200160002060006101000a81548173ffffffffffffffffffffffffffffffffffffffff021916908373ffffffffffffffffffffffffffffffffffffffff16021790555082600360008373ffffffffffffffffffffffffffffffffffffffff1673ffffffffffffffffffffffffffffffffffffffff1681526020019081526020016000208190555083600460008373ffffffffffffffffffffffffffffffffffffffff1673ffffffffffffffffffffffffffffffffffffffff16815260200190815260200160002081905550428173ffffffffffffffffffffffffffffffffffffffff163373ffffffffffffffffffffffffffffffffffffffff167ff70864d59bf909af09f3d7a8943bf38c32146e70a289c42e630b4df5ceb5ec7f8989896040516200082693929190620015e3565b60405180910390a46001915050949350505050565b6200084562000f0b565b73ffffffffffffffffffffffffffffffffffffffff166200086562000c5b565b73ffffffffffffffffffffffffffffffffffffffff1614620008be576040517f08c379a0000000000000000000000000000000000000000000000000000000008152600401620008b59062001566565b60405180910390fd5b80600460008473ffffffffffffffffffffffffffffffffffffffff1673ffffffffffffffffffffffffffffffffffffffff16815260200190815260200160002060008282546200090f91906200165d565b925050819055505050565b6000670de0b6b3a7640000620009308462000969565b6200093c9190620016ba565b82620009499190620016ba565b905092915050565b60046020528060005260406000206000915090505481565b6000600360008373ffffffffffffffffffffffffffffffffffffffff1673ffffffffffffffffffffffffffffffffffffffff168152602001908152602001600020549050919050565b6000620009c083836200091a565b341462000a04576040517f08c379a0000000000000000000000000000000000000000000000000000000008152600401620009fb906200176b565b60405180910390fd5b62000a108383620005c8565b62000a52576040517f08c379a000000000000000000000000000000000000000000000000000000000815260040162000a4990620017dd565b60405180910390fd5b8373ffffffffffffffffffffffffffffffffffffffff166108fc349081150290604051600060405180830381858888f1935050505015801562000a99573d6000803e3d6000fd5b5081600460008573ffffffffffffffffffffffffffffffffffffffff1673ffffffffffffffffffffffffffffffffffffffff168152602001908152602001600020600082825462000aeb9190620017ff565b92505081905550428373ffffffffffffffffffffffffffffffffffffffff163373ffffffffffffffffffffffffffffffffffffffff167f99f000cf79b0d530aa295d4c50f14b6168962ae8bf10dd1512500c7eefe2bdb462000b4e87876200091a565b8660405162000b5f9291906200183a565b60405180910390a4600190509392505050565b6000600180549050905090565b60036020528060005260406000206000915090505481565b60026020528060005260406000206000915054906101000a900473ffffffffffffffffffffffffffffffffffffffff1681565b62000bd462000f0b565b73ffffffffffffffffffffffffffffffffffffffff1662000bf462000c5b565b73ffffffffffffffffffffffffffffffffffffffff161462000c4d576040517f08c379a000000000000000000000000000000000000000000000000000000000815260040162000c449062001566565b60405180910390fd5b62000c59600062000f13565b565b60008060009054906101000a900473ffffffffffffffffffffffffffffffffffffffff16905090565b6060808273ffffffffffffffffffffffffffffffffffffffff166306fdde036040518163ffffffff1660e01b8152600401600060405180830381865afa15801562000cd3573d6000803e3d6000fd5b505050506040513d6000823e3d601f19601f8201168201806040525081019062000cfe9190620018e5565b8373ffffffffffffffffffffffffffffffffffffffff166395d89b416040518163ffffffff1660e01b8152600401600060405180830381865afa15801562000d4a573d6000803e3d6000fd5b505050506040513d6000823e3d601f19601f8201168201806040525081019062000d759190620018e5565b91509150915091565b6001818154811062000d8f57600080fd5b906000526020600020016000915054906101000a900473ffffffffffffffffffffffffffffffffffffffff1681565b62000dc862000f0b565b73ffffffffffffffffffffffffffffffffffffffff1662000de862000c5b565b73ffffffffffffffffffffffffffffffffffffffff161462000e41576040517f08c379a000000000000000000000000000000000000000000000000000000000815260040162000e389062001566565b60405180910390fd5b600073ffffffffffffffffffffffffffffffffffffffff168173ffffffffffffffffffffffffffffffffffffffff16141562000eb4576040517f08c379a000000000000000000000000000000000000000000000000000000000815260040162000eab90620019ac565b60405180910390fd5b62000ebf8162000f13565b50565b6000600460008373ffffffffffffffffffffffffffffffffffffffff1673ffffffffffffffffffffffffffffffffffffffff168152602001908152602001600020549050919050565b600033905090565b60008060009054906101000a900473ffffffffffffffffffffffffffffffffffffffff169050816000806101000a81548173ffffffffffffffffffffffffffffffffffffffff021916908373ffffffffffffffffffffffffffffffffffffffff1602179055508173ffffffffffffffffffffffffffffffffffffffff168173ffffffffffffffffffffffffffffffffffffffff167f8be0079c531659141344cd1fd0a4f28419497f9722a3daafe3b4186f6b6457e060405160405180910390a35050565b6126dd80620019cf83390190565b6000604051905090565b600080fd5b600080fd5b600073ffffffffffffffffffffffffffffffffffffffff82169050919050565b6000620010268262000ff9565b9050919050565b620010388162001019565b81146200104457600080fd5b50565b60008135905062001058816200102d565b92915050565b6000819050919050565b62001073816200105e565b81146200107f57600080fd5b50565b600081359050620010938162001068565b92915050565b60008060408385031215620010b357620010b262000fef565b5b6000620010c38582860162001047565b9250506020620010d68582860162001082565b9150509250929050565b60008115159050919050565b620010f781620010e0565b82525050565b6000602082019050620011146000830184620010ec565b92915050565b600080fd5b600080fd5b6000601f19601f8301169050919050565b7f4e487b7100000000000000000000000000000000000000000000000000000000600052604160045260246000fd5b6200116f8262001124565b810181811067ffffffffffffffff8211171562001191576200119062001135565b5b80604052505050565b6000620011a662000fe5565b9050620011b4828262001164565b919050565b600067ffffffffffffffff821115620011d757620011d662001135565b5b620011e28262001124565b9050602081019050919050565b82818337600083830152505050565b6000620012156200120f84620011b9565b6200119a565b9050828152602081018484840111156200123457620012336200111f565b5b62001241848285620011ef565b509392505050565b600082601f8301126200126157620012606200111a565b5b813562001273848260208601620011fe565b91505092915050565b6000806000806080858703121562001299576200129862000fef565b5b600085013567ffffffffffffffff811115620012ba57620012b962000ff4565b5b620012c88782880162001249565b945050602085013567ffffffffffffffff811115620012ec57620012eb62000ff4565b5b620012fa8782880162001249565b93505060406200130d8782880162001082565b9250506060620013208782880162001082565b91505092959194509250565b62001337816200105e565b82525050565b60006020820190506200135460008301846200132c565b92915050565b60006020828403121562001373576200137262000fef565b5b6000620013838482850162001047565b91505092915050565b600080600060608486031215620013a857620013a762000fef565b5b6000620013b88682870162001047565b9350506020620013cb8682870162001047565b9250506040620013de8682870162001082565b9150509250925092565b620013f38162001019565b82525050565b6000602082019050620014106000830184620013e8565b92915050565b600081519050919050565b600082825260208201905092915050565b60005b838110156200145257808201518184015260208101905062001435565b8381111562001462576000848401525b50505050565b6000620014758262001416565b62001481818562001421565b93506200149381856020860162001432565b6200149e8162001124565b840191505092915050565b60006040820190508181036000830152620014c5818562001468565b90508181036020830152620014db818462001468565b90509392505050565b600060208284031215620014fd57620014fc62000fef565b5b60006200150d8482850162001082565b91505092915050565b7f4f776e61626c653a2063616c6c6572206973206e6f7420746865206f776e6572600082015250565b60006200154e60208362001421565b91506200155b8262001516565b602082019050919050565b6000602082019050818103600083015262001581816200153f565b9050919050565b60006080820190506200159f6000830187620013e8565b8181036020830152620015b3818662001468565b90508181036040830152620015c9818562001468565b9050620015da60608301846200132c565b95945050505050565b60006060820190508181036000830152620015ff818662001468565b9050818103602083015262001615818562001468565b90506200162660408301846200132c565b949350505050565b7f4e487b7100000000000000000000000000000000000000000000000000000000600052601160045260246000fd5b60006200166a826200105e565b915062001677836200105e565b9250827fffffffffffffffffffffffffffffffffffffffffffffffffffffffffffffffff03821115620016af57620016ae6200162e565b5b828201905092915050565b6000620016c7826200105e565b9150620016d4836200105e565b9250817fffffffffffffffffffffffffffffffffffffffffffffffffffffffffffffffff048311821515161562001710576200170f6200162e565b5b828202905092915050565b7f4e6f7420456e6f7567682042616c616e63650000000000000000000000000000600082015250565b60006200175360128362001421565b915062001760826200171b565b602082019050919050565b60006020820190508181036000830152620017868162001744565b9050919050565b7f4f7574206f662053746f636b0000000000000000000000000000000000000000600082015250565b6000620017c5600c8362001421565b9150620017d2826200178d565b602082019050919050565b60006020820190508181036000830152620017f881620017b6565b9050919050565b60006200180c826200105e565b915062001819836200105e565b9250828210156200182f576200182e6200162e565b5b828203905092915050565b60006040820190506200185160008301856200132c565b6200186060208301846200132c565b9392505050565b60006200187e6200187884620011b9565b6200119a565b9050828152602081018484840111156200189d576200189c6200111f565b5b620018aa84828562001432565b509392505050565b600082601f830112620018ca57620018c96200111a565b5b8151620018dc84826020860162001867565b91505092915050565b600060208284031215620018fe57620018fd62000fef565b5b600082015167ffffffffffffffff8111156200191f576200191e62000ff4565b5b6200192d84828501620018b2565b91505092915050565b7f4f776e61626c653a206e6577206f776e657220697320746865207a65726f206160008201527f6464726573730000000000000000000000000000000000000000000000000000602082015250565b60006200199460268362001421565b9150620019a18262001936565b604082019050919050565b60006020820190508181036000830152620019c78162001985565b905091905056fe60806040523480156200001157600080fd5b50604051620026dd380380620026dd8339818101604052810190620000379190620005f8565b82828160039080519060200190620000519291906200030b565b5080600490805190602001906200006a9291906200030b565b5050506200008d62000081620000ba60201b60201c565b620000c260201b60201c565b6200009f33826200018860201b60201c565b620000b084620000c260201b60201c565b505050506200084a565b600033905090565b6000600560009054906101000a900473ffffffffffffffffffffffffffffffffffffffff16905081600560006101000a81548173ffffffffffffffffffffffffffffffffffffffff021916908373ffffffffffffffffffffffffffffffffffffffff1602179055508173ffffffffffffffffffffffffffffffffffffffff168173ffffffffffffffffffffffffffffffffffffffff167f8be0079c531659141344cd1fd0a4f28419497f9722a3daafe3b4186f6b6457e060405160405180910390a35050565b600073ffffffffffffffffffffffffffffffffffffffff168273ffffffffffffffffffffffffffffffffffffffff161415620001fb576040517f08c379a0000000000000000000000000000000000000000000000000000000008152600401620001f29062000709565b60405180910390fd5b6200020f600083836200030160201b60201c565b80600260008282546200022391906200075a565b92505081905550806000808473ffffffffffffffffffffffffffffffffffffffff1673ffffffffffffffffffffffffffffffffffffffff16815260200190815260200160002060008282546200027a91906200075a565b925050819055508173ffffffffffffffffffffffffffffffffffffffff16600073ffffffffffffffffffffffffffffffffffffffff167fddf252ad1be2c89b69c2b068fc378daa952ba7f163c4a11628f55a4df523b3ef83604051620002e19190620007c8565b60405180910390a3620002fd600083836200030660201b60201c565b5050565b505050565b505050565b828054620003199062000814565b90600052602060002090601f0160209004810192826200033d576000855562000389565b82601f106200035857805160ff191683800117855562000389565b8280016001018555821562000389579182015b82811115620003885782518255916020019190600101906200036b565b5b5090506200039891906200039c565b5090565b5b80821115620003b75760008160009055506001016200039d565b5090565b6000604051905090565b600080fd5b600080fd5b600073ffffffffffffffffffffffffffffffffffffffff82169050919050565b6000620003fc82620003cf565b9050919050565b6200040e81620003ef565b81146200041a57600080fd5b50565b6000815190506200042e8162000403565b92915050565b600080fd5b600080fd5b6000601f19601f8301169050919050565b7f4e487b7100000000000000000000000000000000000000000000000000000000600052604160045260246000fd5b62000489826200043e565b810181811067ffffffffffffffff82111715620004ab57620004aa6200044f565b5b80604052505050565b6000620004c0620003bb565b9050620004ce82826200047e565b919050565b600067ffffffffffffffff821115620004f157620004f06200044f565b5b620004fc826200043e565b9050602081019050919050565b60005b83811015620005295780820151818401526020810190506200050c565b8381111562000539576000848401525b50505050565b6000620005566200055084620004d3565b620004b4565b90508281526020810184848401111562000575576200057462000439565b5b6200058284828562000509565b509392505050565b600082601f830112620005a257620005a162000434565b5b8151620005b48482602086016200053f565b91505092915050565b6000819050919050565b620005d281620005bd565b8114620005de57600080fd5b50565b600081519050620005f281620005c7565b92915050565b60008060008060808587031215620006155762000614620003c5565b5b600062000625878288016200041d565b945050602085015167ffffffffffffffff811115620006495762000648620003ca565b5b62000657878288016200058a565b935050604085015167ffffffffffffffff8111156200067b576200067a620003ca565b5b62000689878288016200058a565b92505060606200069c87828801620005e1565b91505092959194509250565b600082825260208201905092915050565b7f45524332303a206d696e7420746f20746865207a65726f206164647265737300600082015250565b6000620006f1601f83620006a8565b9150620006fe82620006b9565b602082019050919050565b600060208201905081810360008301526200072481620006e2565b9050919050565b7f4e487b7100000000000000000000000000000000000000000000000000000000600052601160045260246000fd5b60006200076782620005bd565b91506200077483620005bd565b9250827fffffffffffffffffffffffffffffffffffffffffffffffffffffffffffffffff03821115620007ac57620007ab6200072b565b5b828201905092915050565b620007c281620005bd565b82525050565b6000602082019050620007df6000830184620007b7565b92915050565b7f4e487b7100000000000000000000000000000000000000000000000000000000600052602260045260246000fd5b600060028204905060018216806200082d57607f821691505b60208210811415620008445762000843620007e5565b5b50919050565b611e83806200085a6000396000f3fe608060405234801561001057600080fd5b506004361061010b5760003560e01c806370a08231116100a257806395d89b411161007157806395d89b41146102a6578063a457c2d7146102c4578063a9059cbb146102f4578063dd62ed3e14610324578063f2fde38b146103545761010b565b806370a0823114610232578063715018a61461026257806379cc67901461026c5780638da5cb5b146102885761010b565b8063313ce567116100de578063313ce567146101ac57806339509351146101ca57806340c10f19146101fa57806342966c68146102165761010b565b806306fdde0314610110578063095ea7b31461012e57806318160ddd1461015e57806323b872dd1461017c575b600080fd5b610118610370565b6040516101259190611424565b60405180910390f35b610148600480360381019061014391906114df565b610402565b604051610155919061153a565b60405180910390f35b610166610425565b6040516101739190611564565b60405180910390f35b6101966004803603810190610191919061157f565b61042f565b6040516101a3919061153a565b60405180910390f35b6101b461045e565b6040516101c191906115ee565b60405180910390f35b6101e460048036038101906101df91906114df565b610467565b6040516101f1919061153a565b60405180910390f35b610214600480360381019061020f91906114df565b610511565b005b610230600480360381019061022b9190611609565b61059b565b005b61024c60048036038101906102479190611636565b6105a8565b6040516102599190611564565b60405180910390f35b61026a6105f0565b005b610286600480360381019061028191906114df565b610678565b005b610290610702565b60405161029d9190611672565b60405180910390f35b6102ae61072c565b6040516102bb9190611424565b60405180910390f35b6102de60048036038101906102d991906114df565b6107be565b6040516102eb919061153a565b60405180910390f35b61030e600480360381019061030991906114df565b6108a8565b60405161031b919061153a565b60405180910390f35b61033e6004803603810190610339919061168d565b610925565b60405161034b9190611564565b60405180910390f35b61036e60048036038101906103699190611636565b6109ac565b005b60606003805461037f906116fc565b80601f01602080910402602001604051908101604052809291908181526020018280546103ab906116fc565b80156103f85780601f106103cd576101008083540402835291602001916103f8565b820191906000526020600020905b8154815290600101906020018083116103db57829003601f168201915b5050505050905090565b60008061040d610aa4565b905061041a818585610aac565b600191505092915050565b6000600254905090565b60008061043a610aa4565b9050610447858285610c77565b610452858585610d03565b60019150509392505050565b60006012905090565b600080610472610aa4565b9050610506818585600160008673ffffffffffffffffffffffffffffffffffffffff1673ffffffffffffffffffffffffffffffffffffffff16815260200190815260200160002060008973ffffffffffffffffffffffffffffffffffffffff1673ffffffffffffffffffffffffffffffffffffffff16815260200190815260200160002054610501919061175d565b610aac565b600191505092915050565b610519610aa4565b73ffffffffffffffffffffffffffffffffffffffff16610537610702565b73ffffffffffffffffffffffffffffffffffffffff161461058d576040517f08c379a0000000000000000000000000000000000000000000000000000000008152600401610584906117ff565b60405180910390fd5b6105978282610f84565b5050565b6105a533826110e4565b50565b60008060008373ffffffffffffffffffffffffffffffffffffffff1673ffffffffffffffffffffffffffffffffffffffff168152602001908152602001600020549050919050565b6105f8610aa4565b73ffffffffffffffffffffffffffffffffffffffff16610616610702565b73ffffffffffffffffffffffffffffffffffffffff161461066c576040517f08c379a0000000000000000000000000000000000000000000000000000000008152600401610663906117ff565b60405180910390fd5b61067660006112bb565b565b610680610aa4565b73ffffffffffffffffffffffffffffffffffffffff1661069e610702565b73ffffffffffffffffffffffffffffffffffffffff16146106f4576040517f08c379a00000000000000000000000000000000000000000000000000000000081526004016106eb906117ff565b60405180910390fd5b6106fe82826110e4565b5050565b6000600560009054906101000a900473ffffffffffffffffffffffffffffffffffffffff16905090565b60606004805461073b906116fc565b80601f0160208091040260200160405190810160405280929190818152602001828054610767906116fc565b80156107b45780601f10610789576101008083540402835291602001916107b4565b820191906000526020600020905b81548152906001019060200180831161079757829003601f168201915b5050505050905090565b6000806107c9610aa4565b90506000600160008373ffffffffffffffffffffffffffffffffffffffff1673ffffffffffffffffffffffffffffffffffffffff16815260200190815260200160002060008673ffffffffffffffffffffffffffffffffffffffff1673ffffffffffffffffffffffffffffffffffffffff1681526020019081526020016000205490508381101561088f576040517f08c379a000000000000000000000000000000000000000000000000000000000815260040161088690611891565b60405180910390fd5b61089c8286868403610aac565b60019250505092915050565b60006108b5338484610d03565b428373ffffffffffffffffffffffffffffffffffffffff163373ffffffffffffffffffffffffffffffffffffffff167f9ed053bb818ff08b8353cd46f78db1f0799f31c9e4458fdb425c10eccd2efc44856040516109139190611564565b60405180910390a46001905092915050565b6000600160008473ffffffffffffffffffffffffffffffffffffffff1673ffffffffffffffffffffffffffffffffffffffff16815260200190815260200160002060008373ffffffffffffffffffffffffffffffffffffffff1673ffffffffffffffffffffffffffffffffffffffff16815260200190815260200160002054905092915050565b6109b4610aa4565b73ffffffffffffffffffffffffffffffffffffffff166109d2610702565b73ffffffffffffffffffffffffffffffffffffffff1614610a28576040517f08c379a0000000000000000000000000000000000000000000000000000000008152600401610a1f906117ff565b60405180910390fd5b600073ffffffffffffffffffffffffffffffffffffffff168173ffffffffffffffffffffffffffffffffffffffff161415610a98576040517f08c379a0000000000000000000000000000000000000000000000000000000008152600401610a8f90611923565b60405180910390fd5b610aa1816112bb565b50565b600033905090565b600073ffffffffffffffffffffffffffffffffffffffff168373ffffffffffffffffffffffffffffffffffffffff161415610b1c576040517f08c379a0000000000000000000000000000000000000000000000000000000008152600401610b13906119b5565b60405180910390fd5b600073ffffffffffffffffffffffffffffffffffffffff168273ffffffffffffffffffffffffffffffffffffffff161415610b8c576040517f08c379a0000000000000000000000000000000000000000000000000000000008152600401610b8390611a47565b60405180910390fd5b80600160008573ffffffffffffffffffffffffffffffffffffffff1673ffffffffffffffffffffffffffffffffffffffff16815260200190815260200160002060008473ffffffffffffffffffffffffffffffffffffffff1673ffffffffffffffffffffffffffffffffffffffff168152602001908152602001600020819055508173ffffffffffffffffffffffffffffffffffffffff168373ffffffffffffffffffffffffffffffffffffffff167f8c5be1e5ebec7d5bd14f71427d1e84f3dd0314c0f7b2291e5b200ac8c7c3b92583604051610c6a9190611564565b60405180910390a3505050565b6000610c838484610925565b90507fffffffffffffffffffffffffffffffffffffffffffffffffffffffffffffffff8114610cfd5781811015610cef576040517f08c379a0000000000000000000000000000000000000000000000000000000008152600401610ce690611ab3565b60405180910390fd5b610cfc8484848403610aac565b5b50505050565b600073ffffffffffffffffffffffffffffffffffffffff168373ffffffffffffffffffffffffffffffffffffffff161415610d73576040517f08c379a0000000000000000000000000000000000000000000000000000000008152600401610d6a90611b45565b60405180910390fd5b600073ffffffffffffffffffffffffffffffffffffffff168273ffffffffffffffffffffffffffffffffffffffff161415610de3576040517f08c379a0000000000000000000000000000000000000000000000000000000008152600401610dda90611bd7565b60405180910390fd5b610dee838383611381565b60008060008573ffffffffffffffffffffffffffffffffffffffff1673ffffffffffffffffffffffffffffffffffffffff16815260200190815260200160002054905081811015610e74576040517f08c379a0000000000000000000000000000000000000000000000000000000008152600401610e6b90611c69565b60405180910390fd5b8181036000808673ffffffffffffffffffffffffffffffffffffffff1673ffffffffffffffffffffffffffffffffffffffff16815260200190815260200160002081905550816000808573ffffffffffffffffffffffffffffffffffffffff1673ffffffffffffffffffffffffffffffffffffffff1681526020019081526020016000206000828254610f07919061175d565b925050819055508273ffffffffffffffffffffffffffffffffffffffff168473ffffffffffffffffffffffffffffffffffffffff167fddf252ad1be2c89b69c2b068fc378daa952ba7f163c4a11628f55a4df523b3ef84604051610f6b9190611564565b60405180910390a3610f7e848484611386565b50505050565b600073ffffffffffffffffffffffffffffffffffffffff168273ffffffffffffffffffffffffffffffffffffffff161415610ff4576040517f08c379a0000000000000000000000000000000000000000000000000000000008152600401610feb90611cd5565b60405180910390fd5b61100060008383611381565b8060026000828254611012919061175d565b92505081905550806000808473ffffffffffffffffffffffffffffffffffffffff1673ffffffffffffffffffffffffffffffffffffffff1681526020019081526020016000206000828254611067919061175d565b925050819055508173ffffffffffffffffffffffffffffffffffffffff16600073ffffffffffffffffffffffffffffffffffffffff167fddf252ad1be2c89b69c2b068fc378daa952ba7f163c4a11628f55a4df523b3ef836040516110cc9190611564565b60405180910390a36110e060008383611386565b5050565b600073ffffffffffffffffffffffffffffffffffffffff168273ffffffffffffffffffffffffffffffffffffffff161415611154576040517f08c379a000000000000000000000000000000000000000000000000000000000815260040161114b90611d67565b60405180910390fd5b61116082600083611381565b60008060008473ffffffffffffffffffffffffffffffffffffffff1673ffffffffffffffffffffffffffffffffffffffff168152602001908152602001600020549050818110156111e6576040517f08c379a00000000000000000000000000000000000000000000000000000000081526004016111dd90611df9565b60405180910390fd5b8181036000808573ffffffffffffffffffffffffffffffffffffffff1673ffffffffffffffffffffffffffffffffffffffff16815260200190815260200160002081905550816002600082825461123d9190611e19565b92505081905550600073ffffffffffffffffffffffffffffffffffffffff168373ffffffffffffffffffffffffffffffffffffffff167fddf252ad1be2c89b69c2b068fc378daa952ba7f163c4a11628f55a4df523b3ef846040516112a29190611564565b60405180910390a36112b683600084611386565b505050565b6000600560009054906101000a900473ffffffffffffffffffffffffffffffffffffffff16905081600560006101000a81548173ffffffffffffffffffffffffffffffffffffffff021916908373ffffffffffffffffffffffffffffffffffffffff1602179055508173ffffffffffffffffffffffffffffffffffffffff168173ffffffffffffffffffffffffffffffffffffffff167f8be0079c531659141344cd1fd0a4f28419497f9722a3daafe3b4186f6b6457e060405160405180910390a35050565b505050565b505050565b600081519050919050565b600082825260208201905092915050565b60005b838110156113c55780820151818401526020810190506113aa565b838111156113d4576000848401525b50505050565b6000601f19601f8301169050919050565b60006113f68261138b565b6114008185611396565b93506114108185602086016113a7565b611419816113da565b840191505092915050565b6000602082019050818103600083015261143e81846113eb565b905092915050565b600080fd5b600073ffffffffffffffffffffffffffffffffffffffff82169050919050565b60006114768261144b565b9050919050565b6114868161146b565b811461149157600080fd5b50565b6000813590506114a38161147d565b92915050565b6000819050919050565b6114bc816114a9565b81146114c757600080fd5b50565b6000813590506114d9816114b3565b92915050565b600080604083850312156114f6576114f5611446565b5b600061150485828601611494565b9250506020611515858286016114ca565b9150509250929050565b60008115159050919050565b6115348161151f565b82525050565b600060208201905061154f600083018461152b565b92915050565b61155e816114a9565b82525050565b60006020820190506115796000830184611555565b92915050565b60008060006060848603121561159857611597611446565b5b60006115a686828701611494565b93505060206115b786828701611494565b92505060406115c8868287016114ca565b9150509250925092565b600060ff82169050919050565b6115e8816115d2565b82525050565b600060208201905061160360008301846115df565b92915050565b60006020828403121561161f5761161e611446565b5b600061162d848285016114ca565b91505092915050565b60006020828403121561164c5761164b611446565b5b600061165a84828501611494565b91505092915050565b61166c8161146b565b82525050565b60006020820190506116876000830184611663565b92915050565b600080604083850312156116a4576116a3611446565b5b60006116b285828601611494565b92505060206116c385828601611494565b9150509250929050565b7f4e487b7100000000000000000000000000000000000000000000000000000000600052602260045260246000fd5b6000600282049050600182168061171457607f821691505b60208210811415611728576117276116cd565b5b50919050565b7f4e487b7100000000000000000000000000000000000000000000000000000000600052601160045260246000fd5b6000611768826114a9565b9150611773836114a9565b9250827fffffffffffffffffffffffffffffffffffffffffffffffffffffffffffffffff038211156117a8576117a761172e565b5b828201905092915050565b7f4f776e61626c653a2063616c6c6572206973206e6f7420746865206f776e6572600082015250565b60006117e9602083611396565b91506117f4826117b3565b602082019050919050565b60006020820190508181036000830152611818816117dc565b9050919050565b7f45524332303a2064656372656173656420616c6c6f77616e63652062656c6f7760008201527f207a65726f000000000000000000000000000000000000000000000000000000602082015250565b600061187b602583611396565b91506118868261181f565b604082019050919050565b600060208201905081810360008301526118aa8161186e565b9050919050565b7f4f776e61626c653a206e6577206f776e657220697320746865207a65726f206160008201527f6464726573730000000000000000000000000000000000000000000000000000602082015250565b600061190d602683611396565b9150611918826118b1565b604082019050919050565b6000602082019050818103600083015261193c81611900565b9050919050565b7f45524332303a20617070726f76652066726f6d20746865207a65726f2061646460008201527f7265737300000000000000000000000000000000000000000000000000000000602082015250565b600061199f602483611396565b91506119aa82611943565b604082019050919050565b600060208201905081810360008301526119ce81611992565b9050919050565b7f45524332303a20617070726f766520746f20746865207a65726f20616464726560008201527f7373000000000000000000000000000000000000000000000000000000000000602082015250565b6000611a31602283611396565b9150611a3c826119d5565b604082019050919050565b60006020820190508181036000830152611a6081611a24565b9050919050565b7f45524332303a20696e73756666696369656e7420616c6c6f77616e6365000000600082015250565b6000611a9d601d83611396565b9150611aa882611a67565b602082019050919050565b60006020820190508181036000830152611acc81611a90565b9050919050565b7f45524332303a207472616e736665722066726f6d20746865207a65726f20616460008201527f6472657373000000000000000000000000000000000000000000000000000000602082015250565b6000611b2f602583611396565b9150611b3a82611ad3565b604082019050919050565b60006020820190508181036000830152611b5e81611b22565b9050919050565b7f45524332303a207472616e7366657220746f20746865207a65726f206164647260008201527f6573730000000000000000000000000000000000000000000000000000000000602082015250565b6000611bc1602383611396565b9150611bcc82611b65565b604082019050919050565b60006020820190508181036000830152611bf081611bb4565b9050919050565b7f45524332303a207472616e7366657220616d6f756e742065786365656473206260008201527f616c616e63650000000000000000000000000000000000000000000000000000602082015250565b6000611c53602683611396565b9150611c5e82611bf7565b604082019050919050565b60006020820190508181036000830152611c8281611c46565b9050919050565b7f45524332303a206d696e7420746f20746865207a65726f206164647265737300600082015250565b6000611cbf601f83611396565b9150611cca82611c89565b602082019050919050565b60006020820190508181036000830152611cee81611cb2565b9050919050565b7f45524332303a206275726e2066726f6d20746865207a65726f2061646472657360008201527f7300000000000000000000000000000000000000000000000000000000000000602082015250565b6000611d51602183611396565b9150611d5c82611cf5565b604082019050919050565b60006020820190508181036000830152611d8081611d44565b9050919050565b7f45524332303a206275726e20616d6f756e7420657863656564732062616c616e60008201527f6365000000000000000000000000000000000000000000000000000000000000602082015250565b6000611de3602283611396565b9150611dee82611d87565b604082019050919050565b60006020820190508181036000830152611e1281611dd6565b9050919050565b6000611e24826114a9565b9150611e2f836114a9565b925082821015611e4257611e4161172e565b5b82820390509291505056fea2646970667358221220aef99dfeb6ad52cc2419b6bfe4229edfad2e16d8cee063fef6e718c27b2550f664736f6c634300080a0033a2646970667358221220e631a10b41944214cf94d7158aa68ee95f0fce38120244a55c6b4be223a3541964736f6c634300080a0033",
  "immutableReferences": {},
  "source": "// SPDX-License-Identifier: MIT\n\npragma solidity >=0.7.0 <0.9.0;\n\nimport \"@openzeppelin/contracts/token/ERC20/ERC20.sol\";\nimport \"@openzeppelin/contracts/token/ERC20/IERC20.sol\";\nimport \"./ProductERC20.sol\";\n\ncontract ProductDeployERC20 is Ownable{\n    address[] public productERC20Addresses;\n    mapping(address => address) public productERC20OwnerAddresses; // ERC20 address ===> externally owned account (EOA)\n    mapping(address => uint256) public productERC20ValueAddresses; // ERC20 address ===> value of token (Ex. 1x10^18 = 1THB)\n    mapping(address => uint256) public productERC20AmountAddresses; // ERC20 address ===> amount of product (Ex. 1x10^18 = 1THB)\n\n    event DeployProductERC20(address indexed deployer, address indexed tokenAddress, string name, string symbol, uint256 amount, uint256 indexed timestamp);\n    event OrderReceipt(address indexed deployer, address indexed tokenAddress, uint256 totalPrice, uint256 amount, uint256 indexed timestamp);\n    \n    function deployERC20Token(string memory name, string memory symbol, uint256 amount, uint256 value) \n    external returns(bool) {\n        ProductERC20 erc20Token = new ProductERC20(msg.sender,name, symbol, amount);\n        productERC20Addresses.push(address(erc20Token));\n        productERC20OwnerAddresses[address(erc20Token)] = msg.sender; \n        productERC20ValueAddresses[address(erc20Token)] = value; \n        productERC20AmountAddresses[address(erc20Token)] = amount; \n        emit DeployProductERC20(msg.sender, address(erc20Token), name, symbol, amount, block.timestamp);\n        return true;\n    }\n\n    function getProductERC20AddressesLength() external view returns(uint256){\n        return productERC20Addresses.length;\n    }\n\n    function getProductDetail(address productContract) public view returns(string memory,string memory){\n        return (ProductERC20(productContract).name()\n        ,ProductERC20(productContract).symbol()); \n    }\n\n    function buyProduct(address to,address productContract , uint amount_) public payable returns (bool){\n        require(msg.value == getTotalPrice(productContract,amount_),\"Not Enough Balance\");\n        require(checkStock(productContract,amount_),\"Out of Stock\");\n        payable(to).transfer(msg.value);\n        productERC20AmountAddresses[address(productContract)] -= amount_;\n        emit OrderReceipt(msg.sender , productContract,getTotalPrice(productContract,amount_),amount_,block.timestamp);\n        return true;\n    }\n\n    function setPrice(address productContract,uint256 price_) public onlyOwner{\n        productERC20ValueAddresses[address(productContract)] = price_; \n    }\n\n    function AddAmount(address productContract,uint amount_) public onlyOwner{\n        productERC20AmountAddresses[address(productContract)] += amount_;\n    }\n\n    function getPrice(address productContract) public view returns (uint256){\n        return productERC20ValueAddresses[address(productContract)];\n    }\n\n    function getAmount(address productContract) public view returns (uint256){\n        return productERC20AmountAddresses[address(productContract)];\n    }\n\n    function getTotalPrice(address productContract,uint amount_) public view returns (uint256) {\n        return amount_ * (getPrice(productContract) * 10 ** 18);\n    }\n\n    function checkStock(address productContract,uint amount_) public view returns (bool) {\n        return amount_ <= productERC20AmountAddresses[address(productContract)];\n    }\n\n   \n}",
  "sourcePath": "/Users/jaithanapat/ecomerce/contracts/ProductDeployERC20.sol",
  "compiler": {
    "name": "solc",
    "version": "0.8.10+commit.fc410830.Emscripten.clang"
  },
  "schemaVersion": "3.4.3",
  "updatedAt": "2022-03-21T00:37:36.748Z",
  "networkType": "ethereum",
  "devdoc": {
    "kind": "dev",
    "methods": {
      "owner()": {
        "details": "Returns the address of the current owner."
      },
      "renounceOwnership()": {
        "details": "Leaves the contract without owner. It will not be possible to call `onlyOwner` functions anymore. Can only be called by the current owner. NOTE: Renouncing ownership will leave the contract without an owner, thereby removing any functionality that is only available to the owner."
      },
      "transferOwnership(address)": {
        "details": "Transfers ownership of the contract to a new account (`newOwner`). Can only be called by the current owner."
      }
    },
    "version": 1
  },
  "userdoc": {
    "kind": "user",
    "methods": {},
    "version": 1
  }
}